:020000040040BA
:10000000C82C4020490A4000450A4000450A4000EB
:10001000450A4000450A4000450A40000000000033
:10002000000000000000000000000000050E40007D
:10003000450A400000000000A10E4000090F4000EA
:10004000450A4000450A4000450A4000450A400074
:10005000450A4000450A4000450A4000450A400064
:10006000450A4000000000007D0740008D07400069
:100070009D074000450A4000450A4000450A4000EF
:10008000AD074000BD074000450A4000450A40005A
:10009000450A4000450A4000450A4000450A400024
:1000A000450A4000450A4000450A4000450A400014
:1000B000450A4000A5064000450A4000450A4000A8
:1000C000450A4000450A4000450A4000450A4000F4
:1000D00000000000450A400000000000450A400002
:1000E000B5064000450A4000450A4000450A400068
:1000F000450A4000450A4000450A4000450A4000C4
:10010000450A4000450A4000450A4000450A4000B3
:10011000450A400000000000000000000000000050
:10012000450A4000450A4000450A4000450A400093
:10013000450A400000000000450A4000450A400012
:1001400010B5054C237833B9044B13B10448AFF311
:1001500000800123237010BDB8094020000000007A
:10016000148A40000C4B43B10C480D4910B5AFF355
:1001700000800C48036823B910BD0A48036833B9EE
:100180007047094B002BF7D0BDE810401847064BCD
:10019000002BF5D0184700BF00000000148A400073
:1001A000BC094020148A40000000000070B51048CF
:1001B000104DA8473E2100200F4B104C9847A047F8
:1001C0000028FCD00E4B98470E4C0F4B0F4A9A62FA
:1001D000A0470028FCD002200D4B98470D4B002073
:1001E00098470D4B98472B460148BDE8704018478B
:1001F00000A3E111ED0B400051084000A5084000AC
:10020000B5084000C508400000060E40013F182018
:10021000CD074000FD074000090B40002DE9F041EB
:1002200090B9002A90460DDD0C468F18084E094DF6
:100230002146013430682B689847BC42F8D14046CB
:10024000BDE8F0818046FAE74FF0FF38F7E700BFDE
:10025000D00B4020C80B4020013802281ED82DE9C1
:10026000F0411546BAB10E460C46DFF83C800D4F02
:1002700001E0013D0DD014F8011BD8F800003B68E7
:1002800098470028A4EB0600F3DA4FF0FF30BDE8F2
:10029000F081BDE8F0811046BDE8F0814FF0FF30FD
:1002A000704700BFCC0B4020D00B4020F8B54FF476
:1002B00000425A4B5A60BFF34F8FBFF36F8F584CB9
:1002C0000023C4F85032636943F400336361BFF321
:1002D0004F8FBFF36F8FD4F8803003F00706C3F35E
:1002E0004E3EC3F3C90C0436BCFA8CF303F01F0373
:1002F000BFF34F8F4FF0FF350EFA06F00CFA03F7FD
:1003000005FA06F69D403A46634640EA0201013B83
:100310002A44C4F86012591CF7D10EF1FF3E304454
:10032000BEF1FF3FEFD1BFF34F8F636943F48033DA
:100330006361BFF34F8FBFF36F8F3A4B3A493B4A2C
:1003400059605A60BFF34F8FBFF36F8FD4F890326C
:1003500023F00103C4F89032D4F8943223F001035F
:10036000C4F89432BFF34F8FBFF36F8F304C0A2025
:10037000A0470B20A0470C20A0471020A047112029
:10038000A0474FF480752B4A4FF400632A494FF47D
:1003900000142A4E10200D61A1F50071C1F8A05281
:1003A000C1F830525361C2F8A0305366C2F89030A1
:1003B00053651362C2F88430156F25F40065156724
:1003C000556F25F400655567C2F8C030C2F8D430C7
:1003D000C2F8B0301466C2F8904054655462C2F856
:1003E0008040136F23F400131367536F23F400133B
:1003F00053675460D6F814310343C6F814310866C5
:10040000C1F8900048654862C1F880000B6F034353
:100410000B674B6F03434B674860F8BD50180E40A5
:1004200000ED00E0000C0E400C08005A0C07005ACA
:10043000D5084000000E0E4000120E40008008401B
:100440002DE9F041174F82B0026B0024C71BC36A2D
:10045000DFF854800126B7FA87F713407F0901932C
:10046000BF0108EB070509E0019A134202D02B688F
:1004700003B1984701340435102C10D00B2C06FA28
:1004800004F3F1D904F10C030F2C06FA03F3EBD1BA
:10049000019B5B0003D54744FB6B03B1984702B057
:1004A000BDE8F08100400640D40B402070B4012329
:1004B0001478066E03258B40002C4FEA410426EA8F
:1004C000030108BF0023A5400B4303665178436D29
:1004D000A14023EA0503194370BC4165704700BF82
:1004E0004B780A7813430367D1F8023043677047AB
:1004F00001230022022102600174C27443748374D8
:1005000003754375837570B4044E4FF48024044D15
:1005100046608560C46070BC704700BF00A3E111F5
:10052000808D5B000022012302704370704700BF82
:1005300010B420210024FF2240F6FF7304704170A4
:10054000428083805DF8044B704700BF026B12F05D
:10055000807201D0192070470123F0B503600B1D94
:100560000E7C91F813E03606264CBEF1000F06F023
:10057000706618BF4FF00042A8CBB3FBF5F3013B08
:100580004D7C47F400071B022D079BB205F0405538
:100590003B4333432B43134343600B7D4D7D002B83
:1005A0000A6814BF4FF080730023002D43EA020352
:1005B00014BF4FF000720022A04243EA020383609E
:1005C0008B7D4FEA032303F4407343F00C03C0F820
:1005D00094300DD00C4B984201D00020F0BD0B4B55
:1005E000002103F1400243F8041B9342FBD1F4E7DE
:1005F000074B002103F1400243F8041F9A42FBD14C
:10060000EBE700BF00C0034000400640140C402050
:10061000D00B40200B4B994207D00B2907D90E294C
:100620000AD90F31012303FA01F141627047F9D170
:100630004FF40063436270470C31012303FA01F168
:1006400041627047FF0F0047F0B4124CA0420FD038
:100650005B01114C4FF00055104EDBB246F82120E3
:10066000C4F8805184F81D3325600D4BF0BC184749
:100670005B01094C4FF48076084F01F11005DBB2A5
:1006800047F82520C4F8846184F828336660044B59
:10069000F0BC18470040064000E100E0D40B4020C9
:1006A000150640000148024B184700BF00C0034038
:1006B000410440000148024B184700BF004006407B
:1006C00041044000134A144B90420CBF28201D20C7
:1006D00000B583B09847114A9378FF2B18D0EFF3F9
:1006E0001083B3FA83F35B09019372B6BFF35F8F94
:1006F00000200B499378087001330198937020B162
:1007000001230B70BFF35F8F62B603B05DF804FB8B
:10071000FEE700BF00400640D5084000C00B402067
:1007200000004020C06C7047806C7047F8B50446EC
:100730000F4B0F46984706460E4B204698470640FB
:1007400015D00D4C002504E0072D04F110040ED047
:100750006EB123680135BB42F6D161683142F3D0F6
:10076000E36838469847636826EA0306ECE7F8BD75
:100770002507400029074000D40940200A210148EC
:10078000014B1847000E0E402D0740000B21014879
:10079000014B184700100E402D0740000C21014866
:1007A000014B184700120E402D0740001021014850
:1007B000014B184700140E402D074000112101483D
:1007C000014B184700160E402D0740000238022842
:1007D0000DD8084B53F8200007490B6B0A4623F449
:1007E000407303430B63936E1B07FCD570470020D7
:1007F000F2E700BF5086400000060E4013490B6B25
:1008000023F07003184308638B6E180707D44FF466
:10081000805301E0013B16D08A6E1207FAD50B49CE
:100820000B6B23F0030343F002030B638B6E18077B
:1008300007D44FF4805301E0013B04D08A6E1207C5
:10084000FAD5002070470120704700BF00060E4017
:10085000A0B90E4B09020E4889B21A4630B40D4CAD
:100860001D6A2C40204301431962936EDB07FCD5BF
:10087000116A094B0B43136230BC70470349074AA6
:10088000086A074B024013430B62704700060E4094
:1008900001003700FCFFC8FF00003701FCFFC8FE65
:1008A00002003701024B986E00F48030704700BFA1
:1008B00000060E40024B4FF000529A62704700BF94
:1008C00000060E40024B986E00F00200704700BF19
:1008D00000060E403F281AD81F280AD801230E4AC6
:1008E00003FA00F0916930EA010312D01061002090
:1008F000704701232038084A03FA00F0D2F8083183
:1009000030EA030305D0C2F800010020704701203F
:1009100070470020704700BF00060E4043699B07E8
:1009200002D5C16100207047012070474369DB0791
:1009300003D5836900200B7070470120704700BF0A
:100940000B01934210B414D859084FF6FE7401EB12
:10095000C202B2FBF3F2D308591EA14215D8120409
:10096000002102F4E0221A43026208465DF8044BBB
:100970007047C9004FF6FE744B0803EBC202B2FB8E
:10098000F1F2D308591EA14204D901215DF8044BAC
:1009900008467047416841F400214160DFE700BF2D
:1009A000F8B50024144D4FF480764FF0880E2427BC
:1009B000C0F8E45044604FF4002544628462C0F8FB
:1009C00000E0076006600D4E0560346089B10D4699
:1009D0000B4B09680446984758B96A68AB682F6999
:1009E0001343E96862683B430B431A433360626018
:1009F000F8BD0120F8BD00BF00415355440A402016
:100A00004109400040230360704700BF102303608A
:100A1000704700BF42690346920704D5C1F308013D
:100A20000020D96170470120704700BF4369DB0790
:100A300005D583690020C3F308030B6070470120CC
:100A4000704700BFFEE700BF2449254A914200B528
:100A500083B00ED0234882420BD2D343034423F009
:100A600003030433134451F8040B42F8040B9A4275
:100A7000F9D11D4A1D498A420AD2D34300200B44B2
:100A800023F003030433134442F8040B9A42FBD1CE
:100A9000174B184A23F07F039360EFF31083B3FAE8
:100AA00083F35B09019372B6BFF35F8F124A002391
:100AB0001249137001980B6843F470030B60BFF385
:100AC0004F8FBFF36F8F20B101231370BFF35F8F80
:100AD00062B60B4B98470B4B9847FEE7148A4000D1
:100AE00000004020B8094020B8094020C80C402030
:100AF0000000400000ED00E00000402088ED00E034
:100B000095314000D12C4000314A136B03F00303B0
:100B1000012B3DD026D3022B0DD02E490B682C483B
:100B2000026B02F07002702A2CD0026BC2F3021228
:100B3000D3400B607047136A2649DB0138D5264B3A
:100B40000B602348026B02F00302022AE7D1826A9B
:100B5000806AC2F30A42C0B202FB0333B3FBF0F374
:100B60000B60DCE71D4B1B495B6919481B064CBF3A
:100B70004FF400434FF4FA430B60026B02F0700233
:100B8000702AD2D1164AA2FB03235B080B60704780
:100B9000136A1049D80108D4124B0B60126A02F094
:100BA0007002102A11D0202AB9D10B4B0B60B6E786
:100BB0000C4B0B60126A02F07002102A02D0202A3D
:100BC000BDD0BEE7084B0B60BBE7074B0B60A6E749
:100BD00000060E4004004020001BB70010180E4015
:100BE000ABAAAAAA00093D0000127A00164B98424F
:100BF00017D9164B984210D9154B98421AD9154B54
:100C0000984213D9144B984218D9144B9842144B5C
:100C100094BF144A144A1A607047114B134A1A6061
:100C200070470F4B4FF080621A6070470C4B104AB0
:100C30001A6070470A4B0F4A1A607047084B4FF012
:100C400004221A60704700BFBFF35E017FE7BD0258
:100C50003FDB1C04FFCE7B05BFC2DA067FB6390836
:100C6000000C0E4000050004000600040001000412
:100C700000030004000200040D4A0E49136843B14A
:100C80001844814202DB1060184670474FF0FF3075
:100C9000704710B4084C20441460814204DB10609B
:100CA00020465DF8044B70474FF0FF30F9E700BF76
:100CB000480A4020FCFF4520C82E40204FF0FF305E
:100CC000704700BF4FF4005300204B60704700BFD7
:100CD000012070470020704700F108034FF0FF31FA
:100CE00000228160C360036180E80C00704700BF90
:100CF00000230361704700BF43684B609A688A60B5
:100D00009A68516099600861036801330360704715
:100D100030B40D686B1C11D000F1080200E01A46D7
:100D200053681C68A542FAD24B6099608A60516092
:100D300008610368013330BC03607047026953687F
:100D4000F2E700BF42688168036991608268416888
:100D500051605A68904205D000220261186801383B
:100D60001860704782685A60F6E700BF0C4B1B683A
:100D700001330AD04FF0800372B683F31188BFF3BA
:100D80006F8FBFF34F8F62B6FEE74FF0800372B6EE
:100D900083F31188BFF36F8FBFF34F8F62B6FEE707
:100DA0000800402006480068006880F3088862B6A2
:100DB00061B6BFF34F8FBFF36F8F00DF00BF00003E
:100DC00008ED00E0DFF80C00016841F470010160FB
:100DD0007047000088ED00E070B403464FF0807665
:100DE000074D6FF0020440F8081C443843F8202CEB
:100DF00043F8046C43F80C5C43F8244C70BC704717
:100E00006D0D4000064B19680868B0E8F04F80F39C
:100E10000988BFF36F8F4FF0000080F3118870478F
:100E2000540A4020704700BF4FF0800372B683F32E
:100E30001188BFF36F8FBFF34F8F62B60B4A1368F1
:100E40000133012B136000D07047094B1B6813F06E
:100E5000FF0FF9D04FF0800372B683F31188BFF310
:100E60006F8FBFF34F8F62B6FEE700BF08004020D0
:100E700004ED00E0094A136853B94FF0800372B6DD
:100E800083F31188BFF36F8FBFF34F8F62B6FEE716
:100E9000013B13600BB983F31188704708004020B1
:100EA000EFF30980BFF36F8F154B1A681EF0100F18
:100EB00008BF20ED108A20E9F04F10604DF8043D86
:100EC0004FF0800072B680F31188BFF34F8FBFF3ED
:100ED0006F8F62B601F06EF84FF0000080F311885A
:100EE00008BC19680868B0E8F04F1EF0100F08BF82
:100EF000B0EC108A80F30988BFF36F8F704700BF92
:100F0000540A4020704700BF08B5EFF311834FF03B
:100F1000800272B682F31188BFF36F8FBFF34F8FD9
:100F200062B6054B984718B1044B4FF080521A60D7
:100F3000002383F3118808BD751C400004ED00E018
:100F4000034907220348044B08601A60704700BF3A
:100F500014E000E0BF27090010E000E0234B072267
:100F6000234830B5197883B0FF25224CC9B20191CE
:100F70001D701B780260DBB28DF803309DF80330E2
:100F80009DF8031003F08003090623700DD5062297
:100F900000E00A469DF80330511E5B00DBB28DF87D
:100FA00003309DF803301B06F3D401991202124B53
:100FB00002F4E062C9B20D4C026021701A680F4958
:100FC00042F460021A601A6842F060421A60884770
:100FD0000B4A00210B4B116098470B4A0B491368D1
:100FE00043F0404313608847094B984700E400E012
:100FF000500A40204C0A402020ED00E0410F400004
:1010000008004020C50D400034EF00E0A50D400071
:101010006D0D4000EFF305830F2B10D91249134AD1
:101020005B5C12789A420AD94FF0800372B683F360
:101030001188BFF36F8FBFF34F8F62B6FEE70C4B83
:101040000C4A1B68126803F4E06393420AD94FF01C
:10105000800372B683F31188BFF36F8FBFF34F8F96
:1010600062B6FEE7704700BFF0E300E04C0A4020A4
:101070000CED00E0500A402010B50446074B98479D
:10108000074B204698470446064B98470CB120462C
:1010900010BD054B9847204610BD00BF591C4000AD
:1010A000E5314000E91D4000B92C400050B1064B2D
:1010B00010B504469847054B20469847044BBDE8B9
:1010C00010401847704700BF591C4000F5314000E0
:1010D000E91D400038B51546026C044642B9056862
:1010E0000DB1002029E04068164B9847656024E068
:1010F000154B65B980689847A368216C62680B44FA
:101100009342A360EDD323682846A36015E0C0682E
:101110009847236CE2685B4221681A448A42E26085
:1011200002D262681344E360022DDAD1A36B002B74
:10113000D7D0A36B0020013BA363A36B0133A36350
:1011400038BD00BF912340006537400030B583B003
:10115000446D0190ACB1A26BE36B9A420AD34FF09D
:10116000800372B683F31188BFF36F8FBFF34F8F85
:1011700062B6FEE7A26B93420ED80025284603B064
:1011800030BD4FF0800372B683F31188BFF36F8FC9
:10119000BFF34F8F62B6FEE70A460D4B01A920460A
:1011A0009847A36C0546013305D0A36C284601334C
:1011B000A36403B030BD636A002BDFD004F12400C8
:1011C000044B9847002818BF0125284603B030BDBE
:1011D000D51040006D214000026C034672B10846F4
:1011E00010B4D9685C681144A142D96001D3196870
:1011F000D960D9685DF8044B014B1847704700BFB0
:10120000653740002DE9F0410446DFF89C80C04777
:10121000A36C002B1ADD204D204F214E08E0A8477B
:10122000012811D0A36C013BA364A36C002B0DDD3E
:10123000636D00212046002BF1D1636A04F1240084
:1012400023B1B0470028EDD0B847EBE74FF0FF33AC
:10125000144FA364B847C047636C002B15DD2369A6
:101260009BB104F110060E4DDFF8308007E0636C8F
:10127000013B6364636C002B07DD23692BB13046AF
:10128000A8470028F3D0C047F1E74FF0FF3363646D
:101290003B46BDE8F04118474D114000BD224000DB
:1012A0006D214000750E4000290E40004FF0800374
:1012B00072B683F31188BFF36F8FBFF34F8F62B69F
:1012C000FEE7000070B5D8B104461D4B0E469847A6
:1012D000206C4FF0FF35E36B0021226803FB00F325
:1012E000A260181A1344A163024465646360E2605B
:1012F000A564CEB923692BB9124B9847012070BD64
:10130000114B984704F11000104B98470128F3D176
:101310000F4B4FF080521A60BFF34F8FBFF36F8FA8
:10132000084B9847012070BD04F11000094DA847F3
:1013300004F12400A847034B9847012070BD00BF6B
:10134000290E4000750E4000AD1240006D21400096
:1013500004ED00E0D90C4000F8B550B94FF080031F
:1013600072B683F31188BFF36F8FBFF34F8F62B6EE
:10137000FEE7064617460D46A9B101FB00F00E4BED
:10138000593098470446A8B100F158030360E6635A
:10139000012125642046094B9847002384F85070AA
:1013A00020466365F8BD5820034B9847044608B1B2
:1013B0002460ECE7024B984779104000C5124000CA
:1013C000AD1240002DE9F04F85B00192002800F0E9
:1013D000B780002900F09E80022B00F08C801E4612
:1013E000634B04468846984710B9019B002B6AD18D
:1013F000A6F102054FF0000ADFF8A091B5FA85F5D5
:101400005C4FDFF89CB16D0922E00DF1080AB84786
:10141000594B9847C847636C013300F0A680A36C12
:10142000013300F09F80B847504601A9534B9847BD
:10143000002840F09080C847A26BE36B9A4217D017
:10144000B8474F4B204698474E4B98474FF0010AFC
:10145000C847A26BE36B9A4225D325BB019BEBB136
:10146000BAF1000FD1D10DF1080A5046D847CEE7A6
:10147000B847019904F11000434B9847404B204670
:101480009847404B98470028E0D14FF080533F4A9F
:101490001360BFF34F8FBFF36F8FD7E7B84728466E
:1014A00005B0BDE8F08F3A4B41463246204698479A
:1014B000636D9BB131462046364B9847012811D0C9
:1014C000B8470120ECE74FF0800372B683F3118830
:1014D000BFF36F8FBFF34F8F62B6FEE7636A43BB04
:1014E0000028EDD0294B4FF080521A60BFF34F8F88
:1014F000BFF36F8FE4E7C26B012A3FF470AF4FF088
:10150000800372B683F31188BFF36F8FBFF34F8FE1
:1015100062B6FEE7026C002A3FF45EAF4FF0800334
:1015200072B683F31188BFF36F8FBFF34F8F62B62C
:10153000FEE704F12400184B98470128C0D1D1E7F9
:101540004FF0800372B683F31188BFF36F8FBFF340
:101550004F8F62B6FEE72046094B9847094B9847E4
:1015600000209DE70023A3645DE70023636456E742
:10157000C9224000750E4000591C40002522400041
:1015800005124000E91D40006520400004ED00E028
:10159000D51040004D1140006D214000290E400043
:1015A0000122400028B32DE9F041002947D0022B49
:1015B00037D01D46374B044690460E469847EFF30A
:1015C00011874FF0800372B683F31188BFF36F8FDA
:1015D000BFF34F8F62B6A26BE36B9A4214D3A5F1AF
:1015E0000200B0FA80F0400970B987F31188BDE8B5
:1015F000F0814FF0800372B683F31188BFF36F8FD1
:10160000BFF34F8F62B6FEE7234B31462A46204692
:101610009847A36C013320D0A36C01200344A3643A
:10162000E3E7C46B012CC4D04FF0800372B683F3A0
:101630001188BFF36F8FBFF34F8F62B6FEE7046C64
:10164000002CB4D04FF0800372B683F31188BFF33F
:101650006F8FBFF34F8F62B6FEE7636D63B12946AC
:1016600020460E4B9847012808D1B8F1000F05D04D
:101670000120C8F80000B8E7636A0BB90120B4E79D
:1016800004F12400064B9847B8F1000FF6D000286B
:10169000EED1F3E715104000D51040004D11400089
:1016A0006D2140002DE9F04F87B00392002866D0ED
:1016B000002900F0AF80019304465E4B0F46984727
:1016C00060B9039B5BB14FF0800372B683F311885E
:1016D000BFF36F8FBFF34F8F62B6FEE70023564E06
:1016E000564DDFF880B1DFF880A1DFF8749106E095
:1016F000A847534B20469847524B984701230293E3
:10170000B047A26B029B002A56D1DDF80C80B8F1DD
:10171000000F4ED00DF110080BB94046D847A8472E
:10172000D047B047636C013301D100236364A36CDD
:10173000013301D10023A364A847404603A9424BCB
:10174000984700282CD1B047A36B002BD0D1A847D5
:101750002368FBB1039904F124003C4B9847384BB4
:1017600020469847374B98470028C7D14FF0805301
:10177000C9F80030BFF34F8FBFF36F8FBEE74FF054
:10178000800372B683F31188BFF36F8FBFF34F8F5F
:1017900062B6FEE7B04760682D4B9847A847D9E787
:1017A0002046274B9847274B9847002007B0BDE8B5
:1017B000F08FA8474046F9E7264B39462046E668B1
:1017C0009847019B63B9A36B2268013BA36312B9DD
:1017D000214B984760602369ABB9A8470120E5E732
:1017E000636AE660002BF8D004F124001B4B984795
:1017F0000028F2D01A4B4FF080521A60BFF34F8F7F
:10180000BFF36F8FE9E704F11000144B98470128EC
:10181000E3D1EFE7026C002A3FF44DAF4FF08003B5
:1018200072B683F31188BFF36F8FBFF34F8F62B629
:10183000FEE700BFC9224000290E4000750E40009F
:1018400005124000E91D40002522400065204000AF
:10185000E9224000D9114000592440006D21400088
:1018600004ED00E001224000591C40000023084A1A
:1018700030B452F8334002EBC30524B10133082BD6
:10188000F7D130BC704742F83310686030BC704705
:10189000540C402070B504460F4B0D461646984731
:1018A000636C013314D0A36C01330ED00B4B9847FB
:1018B000A36B2BB93246294604F12400084B984704
:1018C0002046084BBDE8704018470023A364EDE7AD
:1018D00000236364E7E700BF290E4000750E400057
:1018E000E920400005124000034A044B1268D26808
:1018F000D26852681A607047580A4020040B402092
:101900000D4B0E4A19681268486090420DD30C497D
:101910000C4A10B5044608681968043190470A4B10
:101920001A68944200D21C6010BD0849054A086834
:1019300019680431104700BF540A40204C0B402066
:10194000580A4020110D4000040B40205C0A402042
:101950002DE9F84F0C9E80460D4692469946002E82
:1019600000F09680644C5820A0470446002800F000
:101970009A804FEA8A0A0663A521604B5246304698
:101980009847AAF1040A206B6B1E05F1090104F1C6
:10199000330582442AF0070A5A7805F8012F13F814
:1019A000012F0AB19942F7D10A9D002704F1040BD7
:1019B000534E042D84F83D705846E76428BF042533
:1019C000E562A564C5F10505B04704F11800B0470C
:1019D00027654C4B4A46A561414684F854705046F1
:1019E0002461646298470B9B206003B11C60464BE6
:1019F0009847464A464E1368013313603368002BFC
:101A00003FD0DFF84C81D8F800302BB933680A9A00
:101A1000DB6A9A4200D33460DFF838E10125DFF851
:101A200038C15946E06ADCF80090DEF8002005FA7B
:101A300000F300EB800043EA09032A44DFF8E89052
:101A4000CEF80020226409EB8000324ACCF8003046
:101A50009047314B9847D8F800307BB133680A9AE9
:101A6000DB6A9A420AD92D4B4FF080521A60BFF3BD
:101A70004F8FBFF36F8F2846BDE8F88F2846BDE82B
:101A8000F88F34601368012B14D0DFF8C480C3E7EB
:101A90009000194CA047064600287FF464AF4FF031
:101AA000FF30BDE8F88F30461D4B98474FF0FF30B0
:101AB000BDE8F88F1B4D1C48A8471C48A8471C4888
:101AC000A847DFF898801B48A847DFF894901A4889
:101AD000A8474046A8474846A8471848A847184876
:101AE000A8471848A847184A184BC2F80080DFF8E2
:101AF0006080C3F800908FE779104000993840006B
:101B0000F10C4000D90D4000290E4000C40A4020CD
:101B1000540A4020F90C4000750E400004ED00E02E
:101B2000AD104000D90C4000600A4020740A4020EB
:101B3000880A40209C0A4020B00A40200C0B40201C
:101B4000380B4020240B4020580A40205C0A4020DB
:101B5000200B4020D00A4020D80A4020DC0A402038
:101B6000F00A40204FF0800372B683F31188BFF370
:101B70006F8FBFF34F8F62B6FEE700BF70B403AC48
:101B800070CC60B1042C15D94FF0800372B683F38A
:101B90001188BFF36F8FBFF34F8F62B6FEE74FF030
:101BA000800372B683F31188BFF36F8FBFF34F8F3B
:101BB00062B6FEE70394034C05960495A44670BCF8
:101BC000604700BF5119400070B5002484B04FF445
:101BD0000062194902942346019400941748184D55
:101BE000A84701280DD050B94FF0800372B683F397
:101BF0001188BFF36F8FBFF34F8F62B6FEE704B05B
:101C000070BD104B98470128EDD14FF0800372B69C
:101C100083F31188BFF36F8FBFF34F8F62B60A4D06
:101C20004FF0FF3609490A4A0A4B2E6008601460DB
:101C300004B0BDE8704018475C864000091F4000B2
:101C40005119400049254000040B4020200B402042
:101C50004C0B40205D0F4000024A136801331360B3
:101C6000704700BFCC0A4020014B1868704700BF86
:101C70004C0B40202DE9F84F4C4B1B68002B70D1CA
:101C80004B4B1A6801321A601E68002E5AD0DFF8DA
:101C900050A1DAF80020002496426AD3454D464F01
:101CA000DFF840812FE02A68D268D2F80C90D9F88A
:101CB000041009F1040B8E4258466DD33F4B9847F0
:101CC000D9F8281009F1180009B13C4B9847D9F808
:101CD0002C004FF0010E3A4B59460EFA00FE00EB75
:101CE00080001B6807EB80004EEA030E344BC3F8FC
:101CF00000E0344B9847D8F80000D9F82C10C26A9D
:101D0000914228BF01242A681268002ACBD14FF0E3
:101D1000FF32CAF80020D8F800302B4ADB6A12687C
:101D200003EB830357F82330022B28BF01240AB9A1
:101D3000264B9847264B1B68002B18BF01242046D2
:101D4000BDE8F88F1B4D2B681B68B3B14FF08003C3
:101D500072B683F31188BFF36F8FBFF34F8F62B6F4
:101D6000FEE7194A002419491368013313608847B4
:101D7000E0E7114FDFF86C80CDE7164B2968164A73
:101D80001868286019601368013313602B681B689A
:101D90002BB1124B98477AE7CAF80010BBE7DFF87F
:101DA00040A04FF0FF32CAF8002072E7CC0A402072
:101DB0004C0B4020580A4020600A4020450D40004E
:101DC000D80A4020F90C4000C80A4020B52C400039
:101DD000500B40205C0A4020080B4020E9184000CE
:101DE000040B4020540A40202DE9F04F384C83B0BA
:101DF000236853B94FF0800372B683F31188BFF3A1
:101E00006F8FBFF34F8F62B6FEE7324B9847236860
:101E1000013B23602368002B37D12F4B1B68002B1D
:101E200033D0DFF8D8B02D4B2D4E2E4DDFF8D0A09B
:101E3000DFF8D0901EE0DA680193D46804F104085A
:101E400004F11800B0474046B047E06AD5F800E01A
:101E5000414607FA00F200EB800042EA0E020AEB6C
:101E600080002A60C847204AE16A1268019BD26A52
:101E7000914211D21A680127002ADCD11B4C236839
:101E80006BB9DBF80040012C19D00024184B98479F
:101E9000204603B0BDE8F08FCBF80070EAE7236876
:101EA000002BEED0134E0125B04708B1CBF80050FF
:101EB0002368013B23602368002BF5D1E1E70E4B3B
:101EC0004FF080521A60BFF34F8FBFF36F8FDDE783
:101ED000CC0A4020290E4000C40A40200C0B4020B0
:101EE000450D4000D80A4020540A4020C80A40202E
:101EF000750E4000751C400004ED00E0500B4020C2
:101F0000600A4020F90C40002DE988481E4C1F4E05
:101F10001F4FDFF89490DFF894801E4DDFF890A0FB
:101F200008E02368D6F800B001332360B847BBF15E
:101F3000000F0FD12B68002BF3D1DAF80030012B02
:101F4000F8D9154B4FF080521A60BFF34F8FBFF393
:101F50006F8FEFE7114B9847F368D3F80CB0104B35
:101F60000BF104009847D9F80030013BC9F8003064
:101F70002B68013B2B600B4B9847DBF83000C047C8
:101F80005846C047D6E700BFCC0A4020380B402057
:101F9000E91D4000D40A402004ED00E0290E400075
:101FA000450D4000750E4000C40A4020AD104000B1
:101FB000600A4020254B1B68002B35D1244A10B500
:101FC000244C136023681B6B1A68B2F1A53F03D140
:101FD0005A68B2F1A53F2BD0206821681E4B3431DE
:101FE00098471E4B1B68B3FA83F3DBB21C4AC3F15C
:101FF0001F0303EB83039B00D058D11850B94FF057
:10200000800372B683F31188BFF36F8FBFF34F8FD6
:1020100062B6FEE7083348681A44436893424B604F
:102020000FD0DB68236010BD094B01221A60704796
:102030009A68B2F1A53FCFD1DB68B3F1A53FCBD110
:10204000CFE75B684B60DB68236010BDCC0A4020A3
:10205000500B4020540A40209D2C4000D80A4020BC
:10206000600A4020E8B1184B70B5184D0C4629683D
:10207000183198472868164B0430984740B92B68A8
:1020800001221449D86A0B68824023EA02030B60DC
:10209000631C11D0104A114B10682044BDE87040F9
:1020A00018474FF0800372B683F31188BFF36F8F28
:1020B000BFF34F8F62B6FEE7296809480431094B28
:1020C000BDE87040184700BF110D4000540A402081
:1020D000450D4000D80A40204C0B4020011940001B
:1020E000240B4020F90C4000F8B12DE9F041184CC8
:1020F0000D46184F164621681831B8472068164B10
:102100000430984740B9236801221449D86A0B6803
:10211000824023EA02030B60012E11D0104A114BBA
:1021200010682844BDE8F04118474FF0800372B6AC
:1021300083F31188BFF36F8FBFF34F8F62B6FEE753
:1021400021683B4608480431BDE8F041184700BF0C
:10215000540A4020F90C4000450D4000D80A4020A8
:102160004C0B402001194000240B4020F8B5C368F7
:10217000DC681CB304F11805194F2846B847194B01
:102180001B6843BB261D184D3046B847E26A012341
:10219000164802EB8207314693402A6800EB87001D
:1021A0001343134A2B609047124BE26A1B68DB6AA9
:1021B0009A420ED9104B01201860F8BD4FF08003F1
:1021C00072B683F31188BFF36F8FBFF34F8F62B680
:1021D000FEE70020F8BD29460848054B9847E3E78D
:1021E000450D4000CC0A4020D80A4020600A40201B
:1021F000F90C4000540A4020500B40200C0B4020AA
:1022000008B530B1044A054B12681B6880E80C0021
:1022100008BD034B984700BF080B40204C0B4020E3
:10222000651B4000F8B5002830D021B30D461F4B88
:10223000044698472B681E485A1C016831D01D4E31
:10224000276832689742626806D0914204D301261B
:10225000194B98473046F8BD8F1ABB42F7D95B1A25
:1022600037680168002613442B6027606160124BB9
:1022700098473046F8BD4FF0800372B683F311885B
:10228000BFF36F8FBFF34F8F62B6FEE74FF080034F
:1022900072B683F31188BFF36F8FBFF34F8F62B6AF
:1022A000FEE70026044B98473046F8BD290E400053
:1022B0004C0B4020080B4020750E4000014B0122C2
:1022C0001A607047500B4020054B1B6833B1054B1B
:1022D0001B68002B0CBF02200020704701207047B4
:1022E000200B4020CC0A4020002846D02DE9F041A8
:1022F000224CC36A2268D26A934212D28269002AAF
:1023000004DB2268D26AC2F10502826103EB830317
:102310001B4D426905EB83039A4204D02368DB6AB4
:10232000C362BDE8F081071D0646164B3846984744
:1023300008BBF36A03EB830255F82220DAB9124A8C
:102340000120116800FA03F321EA030313602068F7
:102350000123D2F800E03946C06A0C4C8340F06299
:1023600000EB800043EA0E0305EB80001360234678
:10237000BDE8F0411847044AE9E77047540A402095
:10238000600A4020450D4000D80A4020F90C40006A
:10239000002842D0F8B52B4B1B6898420AD04FF06A
:1023A000800372B683F31188BFF36F8FBFF34F8F33
:1023B00062B6FEE7C36C53B94FF0800372B683F385
:1023C0001188BFF36F8FBFF34F8F62B6FEE7C16A0C
:1023D000013B826CC364914231D0002B2FD1071D89
:1023E0000446194B38469847C8B11848184AA36C98
:1023F0000125D2F800E0394605FA03F6C3F10507D6
:10240000E36203EB830346EA0E06A76100EB830059
:10241000104B166098472846F8BD00207047E66AC2
:102420000A4806EB86030A4A50F82330002BDED117
:1024300001251368B54023EA05031360D7E70020A0
:10244000F8BD00BF540A4020450D4000600A4020FE
:10245000D80A4020F90C4000044B1A681AB11968D8
:10246000CA6C0132CA641868704700BF540A402021
:10247000914208B50061416005D8D21A83699A4239
:1024800007D3012008BD9A4201D29942F9D2044AE9
:1024900000E0044A011D044B10689847002008BD65
:1024A000540B4020580B4020110D40004FF080038A
:1024B00072B683F31188BFF36F8FBFF34F8F62B68D
:1024C000FEE700BF2DE9F041134C144B98472768F5
:1024D0001FB1134BBDE8F0411847124E124D304664
:1024E000DFF85C80C0472846C047104BDFF854E057
:1024F0003A461E60102105200D4BCEF8005098473B
:10250000206030B10B4B0C499847054BBDE8F041BA
:1025100018470A4B984700BF880B4020290E4000FF
:10252000750E40005C0B4020700B4020540B402087
:10253000591340006D18400064864000AD244000EF
:10254000D90C4000580B402010B5104B84B0984770
:102550000F4B1B687BB1002004244FF480520D49BF
:10256000039003460290019000940B480B4CA04747
:1025700008B104B010BD4FF0800372B683F3118828
:10258000BFF36F8FBFF34F8F62B6FEE7C5244000E5
:10259000880B40206C864000FD2640007D1B4000DB
:1025A0002DE9F843089FB9B11D468046104B2C20F9
:1025B000894616469847044658B10E4B9847C4F8CA
:1025C0000080C4F81890201DE661256267620A4BFE
:1025D00098472046BDE8F8834FF0800372B683F336
:1025E0001188BFF36F8FBFF34F8F62B6FEE700BF56
:1025F00079104000C5244000F10C400030B585B092
:1026000010B3124C0546206868B105298DE82600F4
:102610000BDC0F4B984702280ED000232068694638
:102620000C4C1A46A04705B030BD1A466946002337
:10263000094CA04705B030BD20680023089A6946C0
:10264000044CA04705B030BD044B9847880B402090
:10265000C9224000C5134000A5154000AD2440002C
:102660002DE9F047204E82B0204FDFF888800CE043
:10267000DB68DC68D3F80090251D2846B847636AFC
:1026800020469847E369012B0AD033681A68002A6C
:10269000EED1174A11681360316002B0BDE8F087CF
:1026A000A36929464FF0000EDFF84CA009EB0305A3
:1026B0004A4673462046A94504D2656024613068C5
:1026C000D047E2E7CDF800E07146C0470028DCD1F2
:1026D0004FF0800372B683F31188BFF36F8FBFF39F
:1026E0004F8F62B6FEE700BF540B4020450D4000FF
:1026F000580B4020FD254000110D40002DE9F04F02
:10270000DFF8049289B0DFF804A2DFF80482724D8A
:10271000724ED9F800301C68002C4ED0DB681F6860
:10272000D047C0476E4A03461268904256D36C4A5F
:102730008742106060D90022F91A2868694B9847CF
:10274000694B984738B94FF08053684A1360BFF31C
:102750004F8FBFF36F8F002304A928681A46B04734
:102760000028D6D0049B002B1FDB069C636913B1A5
:10277000201D5F4B9847C047594B02461B68984243
:1027800035D3049B5649092B0A60E4D8012101FA8C
:1027900003F313F4047B63D113F0C70F69D19B06D5
:1027A000D9D52046534B9847D5E7059B07990698FE
:1027B0009847049B002BCEDBD7E7D047C047484A59
:1027C00003461268824209D84B4A27464449126898
:1027D0000B601268B2FA82F25209ADE70393474BDD
:1027E0009847039B3E4A13603F4B9847B3E7434BE0
:1027F00003909847039AC4E703933B4B9847D9F853
:1028000000203B4BD268D2F80CB00BF10400984783
:10281000DBF81C20039B012A04D0DBF82430584647
:10282000984798E7DBF818101A4658463B46394453
:10283000334CA0470128F0D100233A465846314C8A
:1028400000931946A0470028E7D14FF0800372B6E5
:1028500083F31188BFF36F8FBFF34F8F62B6FEE72C
:102860000599A16169B3114420461346244CA04741
:1028700071E7059B2046A169214F1944B8470128FB
:102880007FF469AF636A20469847E369012B7FF4C0
:1028900062AF059A2046A4695B46CDF800B0594660
:1028A0002244184CA04700287FF455AF4FF0800316
:1028B00072B683F31188BFF36F8FBFF34F8F62B689
:1028C000FEE74FF0800372B683F31188BFF36F8F7A
:1028D000BFF34F8F62B6FEE7880B4020A51640007D
:1028E000840B402095184000E91D400004ED00E0F5
:1028F000450D4000AD104000580B402061264000BF
:1029000071244000FD254000540B4020591C40001C
:10291000691C4000024B0121022259611A60704774
:1029200000C0034080B50D4E82B00D4DDFF83C90E5
:102930000C4CDFF83C800C4F00234FF47A7201A955
:102940003068A84730B10198C84702460B46384660
:10295000A047F1E74046A047EEE700BF980C4020B3
:10296000A51640004D39400004874000ED3040007E
:102970001487400030B585B007490023012404AA1C
:1029800006484B668D6E02A942F80C4D044C006857
:102990000295A04705B030BD00C00340940C402014
:1029A000A51540002D4B0022F0B5984283B0044697
:1029B0000D4601923AD02A4B98423FD0294B98427B
:1029C00044D0294B984215D0284B984224D0284B0C
:1029D0009C4217D0274B9C4201D003B0F0BD01AF01
:1029E000254E39462046B0470028FAD1019B2B706E
:1029F00003B0F0BD214E29462046B0470028FAD149
:102A000003B0F0BD01AF1C4E39462046B047002848
:102A1000FAD1019B2B70EBE701AF174E39462046E8
:102A2000B0470028FAD1019B2B70E1E7134E07460F
:102A300029463846B0470028FAD1C8E70F4E074666
:102A400029463846B0470028FAD1C0E70B4E074662
:102A500029463846B0470028FAD1BBE700080E40A7
:102A6000000A0E40001A0E40001C0E4000400240BA
:102A70000080024000C002402D0A40002D094000A5
:102A80002A4B984270B50D461CD0294B984222D053
:102A9000284B984228D0284B98422ED0274B98425A
:102AA00007D0274B984238D0264B98422DD0002093
:102AB00070BD0446244E29462046B0470028FAD16E
:102AC000012070BD0446214E29462046B04700280B
:102AD000FAD1012070BD04461C4E29462046B0475D
:102AE0000028FAD1012070BD0446184E2946204620
:102AF000B0470028FAD1012070BD0446134E294684
:102B00002046B0470028FAD1DAE704460E4E29469F
:102B10002046B0470028FAD1D2E704460A4E29469B
:102B20002046B0470028FAD1CAE700BF00080E408F
:102B3000000A0E40001A0E40001C0E4000400240E9
:102B40000080024000C00240150A40001D094000FC
:102B50002DE9F0413B4D00263B4B28463446DFF83B
:102B600038813A4F2DED028B8CB0F2EE048A9847F3
:102B7000374B06A8984706A92846364B98476B68F6
:102B800003A8354A23F08F036B60904731462846EF
:102B900003AA324B8DF80D6098474FF400726E66B1
:102BA00004A82F4BEA669847284604A92D4B98475E
:102BB0002846314601232C4A2C4DA8472C49802217
:102BC0004FF000552B48334681F81D2301220D603C
:102BD00064210090284D2948A847294A0546294BD9
:102BE0001060984733460096024601212846264D3C
:102BF000A847DFED267A0123254EB0EE678A254DE2
:102C0000CDED047A039300234FF47A7206A930685D
:102C1000A8470028F7D0DDED067A0134F8EE677A90
:102C20000A2C38EE278AEED1C8EE287A002303AAB0
:102C300004A9D8F800001C469FED148ACDED047A53
:102C4000B847E0E700C00340C5064000C513400098
:102C5000F10440004D05400025054000AD04400052
:102C600031054000E104400075294000490640005C
:102C700000E100E015294000A12540003C8740000C
:102C80009C0C4020691C4000FD2540000000000015
:102C9000940C4020A5164000980C402008B50A4628
:102CA000024B014602489847FEE700BF4D394000FD
:102CB00044874000704700BF4FF0800372B683F333
:102CC0001188BFF36F8FBFF34F8F62B6FEE700BF6F
:102CD00080B5384B8AB09847374E384B0024384F70
:102CE0009847384D4FF4E1333748C02137604FF4EF
:102CF0000062364E364F05600E200493354B376028
:102D000005910692079408949847334A04A92846E7
:102D1000324B9847324E2846324B98472846324B22
:102D200098473368314D21469868A8473368214653
:102D30002F4F5868A847336821462E4E9868A847F9
:102D4000224608216420B0472246386008216420CA
:102D5000294DB0473B68286033B3284C08B30020A6
:102D60004FF42062264903900346029001900090A0
:102D7000244D2548A847012801D02448A047002019
:102D80004FF420621E490390034602900190009088
:102D90001F48A847012801D01E48A0471E4B98474E
:102DA000FEE71E48A047DAE71D48144CA0472868F4
:102DB000D4E700BFAD014000CC0B4020AD02400085
:102DC000812A400000800240D00B4020C80B4020E8
:102DD000A5294000D508400080D1F008A109400095
:102DE0000C004020050A40000D0A4000453A400012
:102DF000940C402059134000980C4020113A400098
:102E0000BC8640007D1B4000512B4000C086400026
:102E100025294000E4864000C91B400098864000F8
:102E20007486400081F0004102E000BF83F000435F
:102E300030B54FEA41044FEA430594EA050F08BF55
:102E400090EA020F1FBF54EA000C55EA020C7FEA19
:102E5000645C7FEA655C00F0E2804FEA5454D4EB96
:102E60005555B8BF6D420CDD2C4480EA020281EA60
:102E7000030382EA000083EA010180EA020281EA98
:102E80000303362D88BF30BD11F0004F4FEA0131EA
:102E90004FF4801C4CEA113102D0404261EB4101F9
:102EA00013F0004F4FEA03334CEA133302D052427F
:102EB00063EB430394EA050F00F0A780A4F101043B
:102EC000D5F1200E0DDB02FA0EFC22FA05F2801875
:102ED00041F1000103FA0EF2801843FA05F359415B
:102EE0000EE0A5F120050EF1200E012A03FA0EFCDA
:102EF00028BF4CF0020C43FA05F3C01851EBE37104
:102F000001F0004507D54FF0000EDCF1000C7EEB20
:102F100000006EEB0101B1F5801F1BD3B1F5001F5E
:102F20000CD349085FEA30004FEA3C0C04F101047D
:102F30004FEA445212F5800F80F09A80BCF1004FA6
:102F400008BF5FEA500C50F1000041EB045141EA28
:102F5000050130BD5FEA4C0C404141EB010111F429
:102F6000801FA4F10104E9D191F0000F04BF0146D4
:102F70000020B1FA81F308BF2033A3F10B03B3F1B2
:102F800020020CDA0C3208DD02F1140CC2F10C0242
:102F900001FA0CF021FA02F10CE002F11402D8BFA0
:102FA000C2F1200C01FA02F120FA0CFCDCBF41EA6C
:102FB0000C019040E41AA2BF01EB0451294330BD3B
:102FC0006FEA04041F3C1CDA0C340EDC04F1140418
:102FD000C4F1200220FA04F001FA02F340EA0300EF
:102FE00021FA04F345EA030130BDC4F10C04C4F135
:102FF000200220FA02F001FA04F340EA0300294615
:1030000030BD21FA04F0294630BD94F0000F83F45E
:10301000801306BF81F480110134013D4EE77FEA41
:10302000645C18BF7FEA655C29D094EA050F08BF8D
:1030300090EA020F05D054EA000C04BF194610466E
:1030400030BD91EA030F1EBF0021002030BD5FEAB2
:10305000545C05D14000494128BF41F0004130BDDA
:1030600014F580043CBF01F5801130BD01F000452E
:1030700045F0FE4141F470014FF0000030BD7FEAA1
:10308000645C1ABF194610467FEA655C1CBF0B469C
:10309000024650EA013406BF52EA033591EA030FB3
:1030A00041F4002130BD00BF90F0000F04BF0021AB
:1030B000704730B54FF4806404F132044FF00005DE
:1030C0004FF0000150E700BF90F0000F04BF002157
:1030D000704730B54FF4806404F1320410F00045BD
:1030E00048BF40424FF000013EE700BF42004FEAB8
:1030F000E2014FEA31014FEA02701FBF12F07F4335
:1031000093F07F4F81F06051704792F0000F14BF31
:1031100093F07F4F704730B54FF4607401F0004575
:1031200021F0004120E700BF50EA010208BF7047CC
:1031300030B54FF000050AE050EA010208BF7047C1
:1031400030B511F0004502D5404261EB41014FF42A
:10315000806404F132045FEA915C3FF4DCAE4FF02E
:1031600003025FEADC0C18BF03325FEADC0C18BF15
:10317000033202EBDC02C2F1200300FA03FC20FA66
:1031800002F001FA03FE40EA0E0021FA02F11444B3
:10319000C1E600BF70B50F4E0F4D761BB61018BFBD
:1031A000002405D0013455F8043B9847A642F9D1D4
:1031B0000A4E0B4D761B05F017FCB61018BF002405
:1031C00006D0013455F8043B9847A642F9D170BDAA
:1031D00070BD00BFF4894000F4894000FC894000C4
:1031E000F4894000024B0146186800F00BB800BF9C
:1031F0000C004020024B0146186803F029BA00BFBA
:103200000C0040202DE9F04F01F10B06162E83B083
:10321000054640F29E8036F0070600F1BD80B142BF
:1032200000F2BA8000F086FBB6F5FC7FC0F0938216
:10323000730A00F0B880042B00F27981B30903F11E
:10324000390003F1380EC300BF4F3B44A3F108011E
:103250005C68A14206D10CE0002A80F2AA80E468F2
:10326000A14206D0636823F003039A1B0F2AF3DD03
:1032700070463C69DFF8E4E2744500F0AB816368B6
:1032800023F003039A1B0F2A00F39081002AC7F84A
:1032900014E0C7F810E080F29D80B3F5007F80F065
:1032A0006181DB0803F1010C99107A6857F83C80C2
:1032B000C4F8088001238B4007EBCC011343083985
:1032C000E1607B6047F83C40C8F80C408210012464
:1032D00094409C4200F28B801C4206D120F00300F7
:1032E00064001C4200F10400FAD007EBC009CC4690
:1032F0008046DCF80C309C4507D16DE1002A80F255
:103300007B81DB689C4500F06781596821F00301EF
:103310008A1B0F2AF2DDD3F80CC0D3F80880009383
:103320009C19284646F0010642F001055E60C8F887
:103330000CC0CCF808807C613C61C4F80CE0C4F897
:1033400008E065605A5000F0FBFA009B03F10804A6
:103350001EE0102920D800F0EDFA102618230220D4
:10336000794F3B44A3F108025C68944200F03D8130
:103370006368E168A66823F00303234428465A687B
:10338000F16042F001028E605A6000F0D9FA083410
:10339000204603B0BDE8F08F00240C2320462B60AC
:1033A00003B0BDE8F08F40204FF400734FF03F0EA4
:1033B0004AE72344E1685A68A66842F00102F160D6
:1033C00028468E605A6000F0BBFA0834204603B0ED
:1033D000BDE8F08F234428465A6842F001025A6043
:1033E00000F0AEFA0834204603B0BDE8F08FBC68A8
:1033F000636823F00308B04504D3A8EB06030F2B42
:1034000000F38580DFF85891504BD9F800201B68F5
:103410000132334404EB080A00F0558103F5805370
:103420000F3323F47F6B2BF00F0B5946284600F027
:10343000F7FA411C024600F0FC80824500F2F7805A
:10344000434B19685944196000F04D81D9F80000C8
:1034500001301BBFA2EB0A0A5144C9F800201960D1
:1034600012F0070100F01581C1F10800C1F580518B
:103470000244083102EB0B09C9F30B09A1EB09095E
:10348000494628460193009200F0CAFA431C9DE881
:103490000C0000F04381801A484440F00100196894
:1034A000BA604944BC425060196017D0B8F10F0FA0
:1034B00040F2FB806068A8F10C0222F0070204EBE6
:1034C000020E00F001004FF0050C10430F2A60605F
:1034D000CEF804C0CEF808C000F217811D4BBC68BE
:1034E0001A68914288BF19601B4B1A689142626842
:1034F00088BF196022F003029642A2EB060301D8AE
:103500000F2B04DC284600F01BFA002440E7A21928
:1035100043F0010346F0010666602846BA60536036
:1035200000F00EFA0834204603B0BDE8F08F142BEB
:1035300071D9542B00F2A380330B03F16F0003F118
:103540006E0EC30080E600BF38044020BC0B402054
:103550008C0B4020B40B4020B80B4020400440208E
:10356000400840205A0A042A5BD9142A00F2AE808F
:1035700002F15C01C9005B3207EB010C7958ACF138
:10358000080C8C4500F088804A6822F003029342C0
:1035900073D289688C45F7D1DCF80C207B68E26037
:1035A000C4F808C09460CCF80C408FE6A11946F02E
:1035B000010C42F00106C4F804C028467961396163
:1035C000C1F80CE0C1F808E04E60E25000F0B8F934
:1035D0000834DDE67B6879E608F1010818F0030F8E
:1035E0000CF1080C7FF485AE2DE0DC68A34208BF27
:1035F00002303FF43EAEBBE619441C464A68DB6825
:1036000054F8086F42F001024A602846F3609E6059
:1036100000F096F9BCE603F15C0003F15B0EC30019
:1036200012E69A0902F13901C9003832A4E7BC4216
:1036300054D0BC68626822F003025DE759F808398B
:10364000994540F0868010F0030F00F1FF30F5D16E
:103650007B6823EA04037B6064009C423FF6C7AEAC
:10366000002C3FF4C4AE1C4240467FF43EAE6400E2
:103670001C4200F10400FAD037E68C468CE7B3F523
:10368000AA7F15D8F30B03F1780003F1770EC3007E
:10369000DAE54FF48051EDE67B689210012101FAE2
:1036A00002F213437B60624679E70123536029E706
:1036B00040F25452934222D8B30C03F17D0003F13F
:1036C0007C0EC300C0E503F1100BAEE6542A29D8E6
:1036D0001A0B02F16F01C9006E324DE7204B1968D9
:1036E00059441960B2E6CAF30B0000287FF4AEAE6D
:1036F00008EB0B03BA6843F001035360EEE67F204A
:103700004FF47E734FF07E0E9EE504F108012846CB
:10371000009302F09DFF009B1968DFE601204FF047
:103720000009BCE6B2F5AA7F05D8DA0B02F17801F0
:10373000C900773220E740F254518A4205D89A0CEA
:1037400002F17D01C9007C3216E74FF47E717E22C2
:1037500012E77B6880E7F00806F1080300E600BF87
:103760008C0B4020844641EA000313F003036DD123
:10377000403A41D351F8043B40F8043B51F8043B34
:1037800040F8043B51F8043B40F8043B51F8043B3B
:1037900040F8043B51F8043B40F8043B51F8043B2B
:1037A00040F8043B51F8043B40F8043B51F8043B1B
:1037B00040F8043B51F8043B40F8043B51F8043B0B
:1037C00040F8043B51F8043B40F8043B51F8043BFB
:1037D00040F8043B51F8043B40F8043B51F8043BEB
:1037E00040F8043B51F8043B40F8043B51F8043BDB
:1037F00040F8043B403ABDD2303211D351F8043B7B
:1038000040F8043B51F8043B40F8043B51F8043BBA
:1038100040F8043B51F8043B40F8043B103AEDD229
:103820000C3205D351F8043B40F8043B043AF9D27A
:10383000043208D0D2071CBF11F8013B00F8013B4D
:1038400001D30B8803806046704700BF082A13D35A
:103850008B078DD010F003038AD0C3F10403D21A72
:10386000DB071CBF11F8013B00F8013B80D331F8A6
:10387000023B20F8023B7BE7043AD9D3013A11F826
:10388000013B00F8013BF9D20B7803704B78437091
:103890008B7883706046704770B4860746D0541E9C
:1038A000002A41D0CAB2034602E014F1FF343BD3F0
:1038B00003F8012B9D07F8D1032C2ED9CDB245EA90
:1038C00005250F2C45EA054519D903F110022646B6
:1038D000103E0F2E42F8105C42F80C5C42F8085C77
:1038E00042F8045C02F11002F2D8A4F1100222F0B6
:1038F0000F0204F00F041032032C13440DD91E469E
:103900002246043A032A46F8045BFAD8221F22F022
:1039100003020432134404F003042CB1C9B21C4462
:1039200003F8011B9C42FBD170BC70471446034650
:10393000C2E700BF014803F025B900BFB00C40202A
:10394000014803F021B900BFB00C40200FB400B50E
:10395000074983B004AB086853F8042B81680193CE
:1039600000F0BCF903B05DF804EB04B0704700BF91
:103970000C004020F0B5054689B008460C4600F022
:103980003FF9AB6B214F04940126441C04A9022289
:1039900003940590AC68069707960191029253B381
:1039A000636E13F0010FB4F90C309AB201D1900597
:1039B00025D5910406D4626E43F4005322F40052DC
:1039C000A3816266284601AA214602F027FF636EA2
:1039D00000280CBF0A254FF0FF35DA0702D4A3896F
:1039E0009B0502D5284609B0F0BDA06D03F0CCF8C8
:1039F000284609B0F0BD284602F088FDD0E7A06D4A
:103A000003F0C0F8B4F90C309AB2D2E71087400046
:103A1000024B01461868FFF7ADBF00BF0C00402005
:103A200038B5074C0023054608462360FDF724F906
:103A3000431C00D038BD2368002BFBD02B6038BD61
:103A4000C40C402000290CBF022200224FF48063E6
:103A500000F000B82DE9F043614C256883B00446BE
:103A60000F4690461E4615B1AB6B002B64D0B8F1E3
:103A7000020F06D0B8F1010F00F29F80002EC0F2B5
:103A80009C80636ED80734D52146284602F0E6FCB8
:103A9000216B41B104F14003994202D0284602F063
:103AA000D7FD00232363B4F90C300022A2616260C9
:103AB0001A063AD423F44A6323F00303B8F1020F41
:103AC000A3811DD001AB6A462146284603F05EF86B
:103AD000A3891843A081002E32D1009E3046FFF703
:103AE00081FB074600286BD0A38943F08003A381A4
:103AF00028E0A3899905C7D4A06D03F043F8C3E774
:103B00000025616E002604F1430243F00203012008
:103B1000A660CE07A38122602261606101D498056E
:103B20003ED5284603B0BDE8F0832169284602F05F
:103B30008FFDB4F90C30BDE7284602F0E7FC96E7AC
:103B4000002FCBD0AB6B002B33D0009BB4F90C20F3
:103B500027609E421CBF42F40062A281B8F1010FAF
:103B600004BF42F00102A28192B212F00803276161
:103B700066610ED0D1071AD5656E7642002315F026
:103B80000105A661A36009D00025284603B0BDE861
:103B9000F083A360656E15F00105F5D19305C0D4DF
:103BA000A06D02F0F1FF284603B0BDE8F083A660E7
:103BB000F0E7284602F0AAFCC7E74FF0FF35B0E770
:103BC000DDF80090B14504D04846FFF70BFB0746EF
:103BD00020B9B4F90C304FF0FF3592E74E4683E739
:103BE0000C00402000000000000000000000000069
:103BF00000000000000000000000000000000000C5
:103C000090F800F06DE9024520F007016FF0000C1C
:103C100010F0070491F820F040F049804FF00004C4
:103C20006FF00700D1E9002391F840F000F108009F
:103C300082FA4CF2A4FA8CF283FA4CF3A2FA8CF3D7
:103C40004BBBD1E9022382FA4CF200F10800A4FA3E
:103C50008CF283FA4CF3A2FA8CF3E3B9D1E9042392
:103C600082FA4CF200F10800A4FA8CF283FA4CF3C9
:103C7000A2FA8CF37BB9D1E9062301F1200182FA83
:103C80004CF200F10800A4FA8CF283FA4CF3A2FA89
:103C90008CF3002BC6D0002A04BF04301A4612BA97
:103CA000B2FA82F2FDE8024500EBD2007047D1E99A
:103CB000002304F00305C4F100004FEAC50514F029
:103CC000040F91F840F00CFA05F562EA05021CBFFA
:103CD00063EA050362464FF00004A9E72DE9F04FBF
:103CE000C1B01D468A4691460446089002F038FF4E
:103CF000036815931846FFF783FF0E9514901CB1C7
:103D0000A36B002B00F05F82DAF86430BAF90C2064
:103D100013F0010F93B202D1990540F175829F040F
:103D20000AD4DAF8641042F4005321F40051AAF8DE
:103D30000C30CAF864109BB21E0740F12382DAF8F7
:103D40001020002A00F01E8203F01A020A2A00F056
:103D50003E820023184611931393129325932493C4
:103D6000189319930B9330AB2393984616901790A2
:103D7000CDF828A099F800304C46EBB1252B02D1A4
:103D80001AE0252B03D014F8013F002BF9D1A4EB46
:103D900009058DB1249B259AC8F8009001332A4467
:103DA000072BC8F804502592249300F3018208F1F0
:103DB00008080B9B2B440B932378002B00F0F08317
:103DC00000231A468DF86F3019460C939B4666788F
:103DD0004FF0FF3304F10109099309F10109A6F13C
:103DE0002003582B00F2BF83DFE813F0E002BD038D
:103DF000BD034F03BD03BD03BD03BD03BD03BD0331
:103E000054030803BD031A02E802BD0303033A0387
:103E10003A033A033A033A033A033A033A033A03BA
:103E2000BD03BD03BD03BD03BD03BD03BD03BD0392
:103E3000BD03BD0349036203BD036203BD03BD03AC
:103E4000BD03BD03A203BD03BD036F00BD03BD03DE
:103E5000BD03BD03BD035900BD03BD031E03BD0368
:103E6000BD03BD03BD03BD03BD03BD03BD03BD0352
:103E7000BD0324037302620362036203B702730289
:103E8000BD03BD03BC02BD03C90271000D0347029F
:103E9000BD035202BD035B00BD03BD031F024BF017
:103EA000100B1BF0200F40F053830E9A1BF0100FE5
:103EB000134640F0B4851BF0400F00F0B085148825
:103EC0000432002501230E9214E04BF0100B1BF07E
:103ED000200340F032831BF0100240F089851BF074
:103EE000400300F085850E9913460A4604320C887B
:103EF0000E9200254FF0000A8DF86FA009994A1C18
:103F000000F00B822BF08002069254EA050240F08A
:103F10000A82002940F06F84002B40F02D851BF0B1
:103F200001030D9300F0688640AF302307F8413D50
:103F3000099B0D9A9342B8BF134607930023109331
:103F4000BAF1000F02D0079B01330793069B13F0D1
:103F500002030F9302D0079B02330793069B13F0D3
:103F6000840540F01B830C9B079AA3EB020BBBF16B
:103F7000000F40F31383BBF1100F2599249A28DD1D
:103F800043461024A846DDF820A00A9D06E0ABF1C8
:103F9000100BBBF1100F03F1080318DD0132B94813
:103FA00024921031072A259183E81100EFDD23AA1E
:103FB0002946504603F03CFC002840F06A83ABF1F0
:103FC000100BBBF1100F2599249A30ABE6DC454667
:103FD00098460132AB4B24920BEB0104072A25943F
:103FE00088E8080800F3CD849DF86FA008F1080860
:103FF000BAF1000F0ED0249B013301340DF16F0193
:104000000122072B2594249388E8060000F30A84F4
:1040100008F108080F9B6BB1249B013302341CA9E3
:104020000222072B2594249388E8060000F30684D7
:1040300008F10808802D00F02E83099B0D9AA3EB50
:10404000020ABAF1000F3BDDBAF1100F249B8E4D2E
:104050002BDD42462146B0464FF0100B2E46089C01
:104060000A9D06E0AAF1100ABAF1100F02F1080247
:1040700017DD01331031072B2591249382E8400886
:10408000F0DD23AA2946204603F0D2FB002840F0A9
:104090000083AAF1100ABAF1100F2599249B30AAC7
:1040A000E7DC35460C464646904601335444072B20
:1040B0002594249388E8200400F3A98308F10808D4
:1040C000069BDB0500F18582249B0D99C8F80070E2
:1040D00001330C44072B2594C8F80410249300F3F3
:1040E000758308F10808069B59073BD50C9B079A76
:1040F0009D1A002D36DD102D249B21DD1026089FF2
:10410000DDF828A004E0103D102D08F1080817DDA7
:1041100001335C4A24931034072B259488E844002B
:10412000F1DD23AA5146384603F082FB002840F017
:104130003F82103D102D259C249B0DF1C008E7DC2B
:104140000133504A24932C44072B259488E82400FB
:1041500008DD23AA0A99089803F06AFB002840F0BA
:104160004783259C0B9B0C9A07998A42ACBF9B18EE
:104170005B180B93002C40F03383002324930DF144
:10418000C008F7E55146089801F096F8002838D0A5
:10419000DAF86430DD0704D4BAF80C309C0540F13D
:1041A000CA854FF0FF330B930B9841B0BDE8F08FF9
:1041B00023AA0A99089803F03BFB002840F01883D3
:1041C0000DF1C008F5E5089802F0A0F99CE5BAF9F0
:1041D0000E20002AFFF6BDADDAF86420D00705D422
:1041E000990503D4DAF8580002F0CEFC2B464A4673
:1041F0005146089801F01EF80B900B9841B0BDE8AD
:10420000F08FBAF80C309FE5DAF8580002F0BAFCEB
:10421000BAF90C2093B282E50C980E9340420C90B0
:104220004BF0040B99F80060D7E5002A40F0DF87D7
:10423000164B18931BF0200F40F0B9840E9A1BF018
:10424000100F134640F0DC831BF0400F00F0D883C2
:10425000043314880E9300251BF0010F00F0228315
:1042600054EA050300F01E8330238DF870308DF87A
:1042700071604BF0020B02233CE64BF0200B99F8E7
:104280000060AAE5A4874000B4874000848740000E
:104290000E9A176800248DF86F40151D002F00F04E
:1042A0004E86099A531C00F0CC852146384602F010
:1042B000E7FC002800F09786C31B0D9309940E9528
:1042C000CDF818B023EAE373079310949DF86FA01C
:1042D00036E6002A40F096871BF0200F40F05A8403
:1042E0001BF0100F40F0A2831BF0400F00F09E83E4
:1042F0000E99B1F900400431E51722462B460E9184
:10430000002A73F10003C0F2878409999DF86FA019
:104310004A1C4FF001037FF4F5AD54EA050200F0AA
:104320006C82CDF818B0012B00F00883022B40F00E
:104330009582189830AF230904F00F0143EA057302
:104340002A091C461546435C07F8013D54EA05035B
:10435000F1D130ABDB1B0D93EAE54BF0400B99F844
:1043600000603AE599F800606C2E03BF99F801608F
:104370004BF0200B09F101094BF0100B2DE5002A41
:1043800040F04C871BF0200F40F03F851BF0100FD2
:1043900040F0FC801BF0400F00F0F8800E9A13688C
:1043A00004320E92BDF82C201A80E3E499F80060E4
:1043B00000297FF412AD012220210EE599F800605A
:1043C0002A2E09F1010000F0F186A6F13003092B35
:1043D000814698BF002000F23D8619F8016B00EB82
:1043E000800003EB4000A6F13003092BF5D90990BA
:1043F000F5E44BF0800B99F80060EEE499F800606A
:1044000001222B21E9E40E9AAE4B1468189378260A
:10441000302304328DF870304BF0020B0E920025E1
:104420008DF87160022365E5002A40F0E486A64B12
:104430001893FFE60E99CDF818B00A688DF8982009
:1044400000230A469A468DF86F3004320123079301
:10445000CDF824A0CDF840A00E920D9326AF75E5BF
:10446000A6F13003002019F8016B00EB800003EB8C
:104470004000A6F13003092BF5D90C90AFE4002AD7
:1044800040F0C8864BF0100B26E74BF0010B99F873
:104490000060A2E40E9C23680C9318460028234673
:1044A00003F10403FFF6B8AE0E9399F8006094E4AC
:1044B000002A40F0B7860E9D073525F0070303F16B
:1044C00008020E921A6813925B681293129B139D56
:1044D00023F00044284621464FF0FF327B4B03F087
:1044E000F1FE002840F0A283284621464FF0FF321B
:1044F000764B03F0C9FE002840F09883169A139873
:10450000179B129903F0B6FE002840F035849DF801
:104510006FA06F4F6F4B032200212BF0800007929A
:1045200009910690472ED8BF1F460D92109107E5BE
:104530004BF0080B99F800604FE40E9D073525F00D
:10454000070303F10802D3E900450E920023D1E4EA
:104550000E9D073525F0070303F10802D3E9004556
:104560000E920123C6E4002A40F05086C6B1002313
:1045700001229A4607928DF89860CDF818B08DF810
:104580006F30099310930D9226AFDFE40E9A1368F3
:1045900004320E920B9A1A60FFF7ECBB259C27E5BC
:1045A000259BDDF828A0002B40F094850023249360
:1045B000DAF8643013F0010FBAF80C3002D19A0522
:1045C00040F149825B063FF5ECAD0B9841B0BDE888
:1045D000F08F652E40F3B280169A1398179B1299AC
:1045E00003F03EFE002800F06081249B3A4AC8F8A0
:1045F0000020013301340122072B25942493C8F8AD
:10460000042000F3BF8308F108081D9B119A259C24
:10461000934203DB069BDF077FF565AD249B14996E
:10462000159AC8F8002001330C44072BC8F8041071
:104630002594249300F3F88308F10808119B5E1E6B
:10464000002E7FF750AD102E249B244D40F3DD81CA
:104650001027DDF820A0DDF828B005E008F10808F3
:10466000103E102E40F3D18101331034072B2594D6
:10467000249388E8A000F1DD23AA5946504603F0B0
:10468000D7F8002840F0CD83259C249B0DF1C0086D
:10469000E6E7AA468CE70C9B079AA3EB020ABAF15D
:1046A000000F7FF7CAACBAF1100F249B0B4D39DD18
:1046B00042462146B0464FF0100B2E46089C0A9DFC
:1046C00015E000BF8487400070874000FFFFEF7F48
:1046D0006487400060874000A0874000B4874000A6
:1046E000AAF1100ABAF1100F02F1080216DD013327
:1046F0001031072B2591249382E84008F0DD23AA8E
:104700002946204603F094F80028C2D1AAF1100AE5
:10471000BAF1100F2599249B30AAE8DC35460C46E7
:104720004646904601335444072B2594249388E849
:10473000200400F3648208F108087EE4119B249EA3
:10474000012B40F3FD81013601340123072E25940E
:104750002496C8F80070C8F8043000F30E8208F1FF
:104760000808149A159BC8F8003001361444072E27
:1047700025942496C8F8042000F32E8208F1080836
:10478000179B169A1398129903F06AFD119B002843
:1047900040F00681013B013601371C44072E249668
:1047A0002594C8F80070C8F8043000F3D98108F1E6
:1047B0000808199AC8F80420013614441FAB072EC4
:1047C00025942496C8F800307FF78BAC23AA0A9969
:1047D000089803F02DF858B9259C0DF1C00882E423
:1047E00023AA0A99089803F023F800283FF4C5ACDF
:1047F000DDF828A0DCE6DDF818B0012B00F02181FF
:10480000022B27D1CDF818B00024002591E523AA6A
:104810000A99089803F00CF80028E9D1259C0DF1BD
:10482000C0084DE423AA0A99089803F001F800286B
:10483000DED1259C0DF1C008FFF7ECBB23AA0A9935
:10484000089802F0F5FF0028D2D1259C0DF1C00890
:10485000FFF7F0BBCDF818B00024002530A900E028
:104860003946E20842EA4572E80804F007030546C3
:104870001446303354EA050201F8013C01F1FF37D8
:10488000EED1069AD2077FF564AD302B3FF461ADCF
:104890003023023907F8013C30AB5B1A0D930F4609
:1048A000FFF746BB0223FFF725BB1D99002940F304
:1048B0007482109B119A9342A8BF1346002B1E4688
:1048C0000DDD249BC8F8007001333444072B259478
:1048D000C8F80460249300F3248308F10808109BAF
:1048E000002EA8BF9B1B002B1E4640F3D080102E2D
:1048F000249BC04D40F3B78022464FF0100ADDF8EC
:1049000020B00A9C05E008F10808103E102E40F384
:10491000A98001331032072B2592249388E82004C4
:10492000F1DD23AA2146584602F082FF002840F01C
:104930002483259A249B0DF1C008E6E7002D08BFCB
:104940000A2C7CD330AF204629460A22002303F0EC
:10495000F7FC303207F8012D2046294600230A22B1
:1049600003F0EEFC04460D4654EA0503EBD130ABF0
:10497000DB1B0D93FFF7DCBA099B0D9330AFFFF7FC
:10498000D7BA23AA0A99089802F052FF00287FF4A8
:104990002FAF9DF86FA0259C0DF1C008FFF728BB35
:1049A0005F1E002F7FF705AF102F924D40F30A8155
:1049B0004FF0100ADDF820B005E008F10808103FBC
:1049C000102F40F3FF8001361034072E25942496D3
:1049D00088E82004F1DD23AA0A99584602F028FF4E
:1049E00000287FF405AF259C249E0DF1C008E6E762
:1049F0000E990A4604320C680E920025FFF77ABA27
:104A00001C6804330E93002526E401333444072B3D
:104A10002594249388E860007FF763ABD6E60432E0
:104A20001C680E9201230025FFF764BA0E9A1468E1
:104A300013460433E5170E9322462B4660E4DDF857
:104A400018B0CDF818B040AF3034012307F8414D0D
:104A50000D93FFF76DBADAF8580002F095F8BAF83E
:104A60000C30AFE5144601333444072B25942493CE
:104A700088E8600040F36D8123AA0A99089802F043
:104A8000D7FE00287FF4B4AE259C0DF1C0081D9B15
:104A9000119A934280F25881249A14981599C8F873
:104AA000001001320444072A2594C8F80400249217
:104AB00000F3528108F10808119A1099D31A561A76
:104AC0009E42A8BF1E46002E0EDD249AC8F8046040
:104AD00001320F443444072AC8F800702594249208
:104AE00000F33C8208F10808002EACBF9E1B1E4656
:104AF000002E7FF7F8AA102E249B3E4D85DD10274F
:104B0000DDF820A0DDF828B005E008F10808103E27
:104B1000102E7FF77AAF01331034072B259424939E
:104B200088E8A000F1DD23AA5946504602F080FE35
:104B3000002840F07681259C249B0DF1C008E6E713
:104B4000069BD8073FF5FFAD013601340123072E40
:104B500025942496C8F80070C8F804307FF727AE73
:104B600023AA0A99089802F063FE00287FF440AE59
:104B7000259C249E0DF1C0081BE623AA0A990898DB
:104B800002F056FE00287FF433AE259C249E0DF1E2
:104B9000C008E6E50E9D073525F00705D5E9002399
:104BA00005F108010E9114461D46FFF7A9BB0E9DA5
:104BB000073525F0070303F108020E92D3E90045FB
:104BC000FFF74ABB01363C44072E2594249688E81B
:104BD000A0007FF7ECADC3E723AA0A99089802F07A
:104BE00027FE00287FF404AE259C249E0DF1C0080A
:104BF000C6E500BFB487400030AFFFF799B923AADC
:104C00000A99089802F014FE00287FF4F1AD259C63
:104C10000DF1C008FFF711BA4FF02D0A644265EBA1
:104C200045058DF86FA00123FFF768B9139C224654
:104C30002046129C2346214603F044FB002840F006
:104C40008C82099B013326F020030D9300F09180A4
:104C5000472B04D1099B002B08BF012309934BF478
:104C600080730693129BB3F1000A139B0793BBBF9B
:104C7000534603F1004A00232D23662E0F9300F0C4
:104C80007F81462E00F0D4810D9B079A452B0CBFE7
:104C9000099B099D21A81EA908BF5D1C04900391D2
:104CA0001DA802210290534601950091089800F03A
:104CB0000BFC672E074640F0AF811BF0010F00F0A0
:104CC00013827C19169A0798179B514603F0C8FA6D
:104CD000002840F03281219BA34206D230215A1C89
:104CE00021921970219B9C42F9D8DB1B11930D9BDB
:104CF000472B00F0B980652E40F376821D9B109300
:104D0000662E00F06281119B109A1946914200F3C1
:104D10004F811BF0010F40F0098222EAE2730793F2
:104D20000D9267260F9B002B40F0968009939DF80B
:104D30006FA0FFF705B9DAF8580001F025FF4FF032
:104D4000FF330B93FFF730BA069AD5077FF5B4AE61
:104D5000A2E608F108089AE623AA0A99089802F040
:104D600067FD00287FF444AD1D9B259C0DF1C00814
:104D7000A2E60623099372E74FF02D0A8DF86FA083
:104D8000FFF7C7BB23AA0A99089802F051FD002833
:104D90007FF42EAD0DF1C00837E4249BB44AC8F867
:104DA0000020013301340122072B25942493C8F8F5
:104DB000042000F3248108F1080829B9119B1BB9CC
:104DC000069BDE077FF58FA9249B1498159AC8F8D7
:104DD0000020013302462244072B2592C8F8040024
:104DE000249300F3698108F108080029C0F2368194
:104DF0001199C8F8007001338C18072B259424935F
:104E0000C8F804107FF76DA9E0E40E9A0B991368B7
:104E1000CD170846043229460E92C3E90001FEF779
:104E2000A9BFDA46FFF7C4BB23AA0A99089802F083
:104E3000FFFC00287FF4DCAC259C0DF1C008FFF7D7
:104E4000FDBB38460994FEF7DBFE0E950D90CDF8BC
:104E500018B00346FFF736BA4FF02D0A00238DF83D
:104E60006FA00993FFF76FB81D9B10931A46033389
:104E700004DB099B19469142BFF645AF023E109BE9
:104E80008DF87C60013B002B1D93BDBF109BC3F1CF
:104E900001032D222B22092B8DF87D2040F33E812A
:104EA0000DF18B042046734D00E0104685FB031284
:104EB000D917C1EBA20101EB8102A3EB4202303210
:104EC000092900F8012C0B4600F1FF32EDDC3033EC
:104ED0000238D9B2844202F8011C40F290810DF1EF
:104EE0007E00134601E013F8011B00F8011BA342EA
:104EF000F9D101339B1A0DF17E0213441FAA9B1AAC
:104F0000119A1993012A13440D9340F345810D9B87
:104F1000149A13440D9323EAE37307930023109329
:104F200000E723AA0A99089802F082FC00287FF47F
:104F30005FAC259C0DF1C008D1E42346D5E6099B62
:104F40001097062B28BF06230997BA4607930E959C
:104F5000CDF818B00D93484FFEF7F2BF23AA0A9977
:104F6000089802F065FC00287FF442AC1D9B119A62
:104F7000259CD31A0DF1C008B6E5A246FFF718BB71
:104F800021A81EA9099D049003911DA80321029048
:104F9000079A019553460091089800F095FA074644
:104FA00044193B78302B00F0CA801D9D2C4489E6C3
:104FB000149A119B1344109A0D93002A40F3E48035
:104FC00023EAE37307936726ACE6002B40F3FB80EC
:104FD000099A002A40F0CE801BF0010F40F0CA80F1
:104FE00007930D939EE6099B07930D9309900E95E9
:104FF000CDF818B010909DF86FA0FEF7A1BF23AABE
:105000000A99089802F014FC00287FF4F1AB1D996E
:10501000259C0DF1C008D0E6472E7FF452AE1BF060
:10502000010F00F0DA80462E07EB0504B9D049E6FF
:1050300021A81EA9099C049003911DA80321029098
:10504000079A019453460091089800F03DFA2546CE
:105050000746E8E700230993FEF7C1BE4E42103130
:10506000064D43DA1024DDF820A0DDF828B00CE06E
:10507000A08740006766666698874000B487400056
:1050800008F10808103E102E30DD01331032072BD6
:1050900025922493C8F80050C8F80440F0DD23AAF4
:1050A0005946504602F0C4FB00287FF4BAAE259A58
:1050B000249B0DF1C008E5E723AA0A99089802F09D
:1050C000B7FB00287FF494AB1D99259A249B0DF122
:1050D000C0088AE6089823AA514602F0A9FB0028D6
:1050E0003FF464AAFFF764BA219BFEE50133324422
:1050F000072B88E860002592249308F108087FF7C1
:1051000077AE23AA0A99089802F092FB00287FF450
:105110006FAB259A249B0DF1C00869E6303330222D
:105120008DF87F308DF87E2020ABE7E6109B149A37
:1051300013440D9323EAE37307936726F2E5169A67
:105140000798179B514603F08BF800287FF42DAF8A
:10515000C5F101051D952C44B4E5129B334F002B7E
:10516000B6BF4FF02D0A9DF86FA08DF86FA0304BA1
:10517000FFF7D1B9109B149A1344099A1A4422EAF2
:10518000E2730D920793CDE5109B0D9AC3F10103D5
:105190001A4413460D9213E71BF0010310937FF49A
:1051A000B6AE0D9B23EAE3730793BBE50E9C99F81B
:1051B0000160236843EAE37309932346043381467D
:1051C0000E93FEF70ABE099B13B91BF0010F02D024
:1051D000149B0133D1E7012302E7219BDB1B1193D1
:1051E0000D9B472B3FF440AE1D9B109347E68DF877
:1051F0006F10FFF71DB88DF86F10FFF718B90DF19C
:105200007E037BE68DF86F10FFF766B88DF86F10A0
:10521000FFF7ACB98DF86F10FFF734B98DF86F1048
:10522000FFF7B0B88DF86F10FFF745B96C874000F5
:10523000688740002DE9F0410C46ADF58D6D8989F8
:10524000666EE589199621F002010646E069ADF81F
:105250000C1017464FF48061626AADF80E50984604
:105260001AAD0023079016A809920693009504959D
:105270000291059101F082FC43463A466946304668
:10528000FEF72CFD051E07DB3046694601F0E6F807
:10529000002818BF4FF0FF35BDF80C305B0603D572
:1052A000A38943F04003A381169801F069FC2846C6
:1052B0000DF58D6DBDE8F08138B5304B1B680546A6
:1052C0000C4613B19A6B002A38D0B4F90C2093B273
:1052D00018070CD52069A8B113F001021ED063692C
:1052E00000225B42A361A260F0B1002038BDD90664
:1052F0003CD5580726D4206942F00803A3819BB20D
:105300000028E9D103F42072B2F5007FE4D02846EA
:10531000214601F069FCA3892069DDE7990758BFA0
:105320006269A2600028E0D1B4F90C301A06DDD51C
:1053300043F04003A3814FF0FF3038BD184601F021
:10534000E5F8C2E7216B51B104F14003994204D062
:10535000284601F07DF9B4F90C20002323630023D3
:105360002069636022F024022060C5E742F0400219
:1053700009232B604FF0FF30A28138BD0C00402084
:10538000024B13B1024800F005B87047000000005E
:105390007D654000002301461A46184602F068BAAF
:1053A00002690B69934200F38D802DE9F04F03F100
:1053B000FF3801F1140700F1140B57F828205BF8AF
:1053C00028304FEA880483B00132B3FBF2F90BEBCB
:1053D0000403009407EB040A0193B9F1000F39D0DC
:1053E00000252E46BC46DE465CF8044BDEF8003055
:1053F000A2B209FB0255220C2C0C09FB0242ADB2F1
:10540000751B96B2C6EB134615FA83F306EB2346DB
:105410009BB243EA0643E2454FEA12454EF8043B8D
:105420004FEA2646E0D2009B5BF8033093B9019C1B
:10543000231F9B450CD254F8043C4BB9A4F108033C
:1054400002E01A68043B1AB99B4508F1FF38F8D30B
:10545000C0F81080044601F0C5FE00282EDB09F1DB
:1054600001095D46002357F8041B28688AB29A1A7E
:105470000B0C12FA80F2C3EB104303EB224392B2FF
:1054800042EA0342BA4545F8042B4FEA2343EAD2E5
:105490005BF828200BEB880382B91A1F93450BD2C7
:1054A00053F8042C42B9083B02E01A68043B1AB9CD
:1054B0009B4508F1FF38F8D3C4F81080484603B084
:1054C000BDE8F08F002070472DE9F04F016C9BB0D4
:1054D0000446279E92469B4641B1426C4A60012396
:1054E00093408B6001F0A6FC00232364BBF1000F06
:1054F0005D4635DB002333609D4BAB4315D05046F2
:1055000059460022002302F0ABFE804600282DD031
:10551000269A01231360289B002B00F0BD8095483C
:10552000186001381BB0BDE8F08F269A42F20F7365
:105530001360BAF1000F0DD1C5F3130555B9289BBF
:105540008D48002BEED000F10803289A13601BB0A1
:10555000BDE8F08F289B8948002BE3D0C31CF4E7FB
:1055600001232BF000453360AB46C5E718AA19AB01
:105570000192009352465B46204601F0D3FE2B0D6C
:10558000814671D0CBF3130242F07F51189FCDF8C2
:1055900050805046A3F2FF3641F440110022784B70
:1055A000FDF744FC6CA3D3E9002302F0F1FB6CA3EC
:1055B000D3E90023FDF73CFCCDE902013046FDF7BD
:1055C00083FD69A3D3E9002302F0E2FB02460B4608
:1055D000DDE90201FDF72CFCCDE9040102F088FEB3
:1055E000002202900023DDE9040102F043FE0028BE
:1055F00040F07381029D162D00F25D81614B03EB3B
:10560000C503D3E9000152465B4602F051FE002873
:1056100000F0C5816B1E029300230E93BF1B7B1EFF
:10562000069300F1548100230893029B002BC0F2E3
:105630004581069A0D9311461944002306910C9357
:10564000249B092B2AD8052B40F35B86043B24932B
:105650000025249B023B032B00F24286DFE813F077
:10566000D403C902DF036104189F199E3E4406F269
:105670003243202B40F38E81C3F1400306F21240E7
:105680009D402AFA00F02843FDF70EFD0123013E5C
:10569000A1F1F871149381E73B4843E7002161646D
:1056A0002046259101F0A0FB4FF0FF330A93259A85
:1056B0000F9301230490206424920B93199B002BD9
:1056C000C0F2D980029A0E2A00F3D5802D4B03EB4D
:1056D000C203D3E90023CDE90823259B002BC0F2A8
:1056E000BA83DDE9085650462A463346594602F049
:1056F00079FC02F0FDFD8046FDF7E6FC2A463346C4
:1057000002F046FB0B46024659465046FDF78EFB1B
:10571000049D08F130032B700A9B012B06460F46AF
:1057200005F1010568D00022184B02F031FB002280
:10573000002306460F4602F093FD002840F08880C3
:10574000CDF82C904FF0000ADFF840B00C94DDE962
:10575000088928E0AFF3008061436F63A787D23FD9
:10576000B3C8608B288AC63FFB799F501344D33F50
:105770000000F07FA1874000C4874000D087400030
:105780000000F83F00884000A0874000000024404F
:1057900002F0FEFA0022002306460F4602F060FDEA
:1057A000002840F0C18342464B463046394602F05D
:1057B00019FC02F09DFD0446FDF786FC42464B466F
:1057C00002F0E6FA02460B4630463946FDF72EFB5C
:1057D00004F1300E049E05F801EBA5EB060E0A9EBF
:1057E000B645CDE9060152465B46D1D1A046DDF86B
:1057F0002C900C9C06460F4632463B4630463946B6
:10580000FDF716FB06460F4602460B46DDE908018A
:1058100002F030FD48B932463B46DDE9080102F0AE
:105820001FFDA8B118F0010F12D015F8018C049AD1
:105830006B1E04E09A4200F0018413F8018DB8F168
:10584000390F03F10105F5D008F1010883F8008054
:105850004946204601F0EEFA0022029B2A70269A61
:1058600001331360289B002B00F09E8304981D6079
:105870001BB0BDE8F08F0B9A002A3ED0249A012A73
:1058800040F311830A9B0C9A5F1EBA42C0F28F83C9
:10589000D71B0A9B002BC0F28B84089D0A9B089A99
:1058A0001A440892069A01211A442046069201F0F1
:1058B0005BFB064624E001230E93AFE6089A029BA9
:1058C000D21A5B420C93002308920D93B8E6C7F1FD
:1058D0000103089300230693A7E6029D2846FDF7DF
:1058E000F3FB02460B46DDE9040102F0B9FC002897
:1058F0007FF480AE6B1E02937CE60C9F089D0B9E8E
:10590000002D0CDD069900290B4608DDA942089AF6
:10591000A8BF2B46D21AED1ACB1A089206930C9BFD
:10592000D3B10B9B002B00F0B782002F10DD314666
:105930003A46204601F0B4FB4A4601460646204658
:1059400001F01CFB49468046204601F073FAC1462F
:105950000C9BDA1B40F0A1820121204601F004FBE0
:105960000D9B002B80461CDD01461A46204601F0A7
:1059700097FB249B012B804640F3548200230C9319
:10598000D8F8103008EB8303186901F09DFAC0F1D4
:10599000200010E0C3F120050AFA05F074E60E902D
:1059A0003CE6249B012B40F3878200230C930D9B44
:1059B0000120002BE4D1069A104410F01F0000F0E3
:1059C000A180C0F12003042B40F39E84089BC0F10A
:1059D0001C00034408931346034405440693089BA4
:1059E000002B05DD49461A46204601F0A9FB8146F9
:1059F000069B002B05DD41461A46204601F0A0FB20
:105A000080460E9B002B40F086800A9B002B40F3C3
:105A100066820B9B002B00F09880002D05DD31463F
:105A20002A46204601F08CFB06460C9B002B40F0DA
:105A3000378306960A9B049ADDF818B0013BD31809
:105A40000B930AF001030C931746C2465146484691
:105A5000FFF7A6FC31460546484601F0C3FB5A460F
:105A60000A905146204601F0D9FBC268804605F1F4
:105A70003003002A40F02B8201464846089301F08B
:105A8000B1FB41460690204601F0D4F9069A089BE6
:105A900032B9249921B90C9A002A00F0EF83249A94
:105AA0000A990029C0F29F8205D1249919B90C994D
:105AB000002900F09882002A00F306830B9A3B70BD
:105AC00007F101089742454600F00C834946002340
:105AD0000A22204601F0B8F95E45814631464FF072
